{
  "contractName": "SwapAgreement",
  "abi": [
    {
      "constant": true,
      "inputs": [],
      "name": "initiator",
      "outputs": [
        {
          "name": "",
          "type": "address"
        }
      ],
      "payable": false,
      "stateMutability": "view",
      "type": "function"
    },
    {
      "constant": true,
      "inputs": [],
      "name": "respondentSkill",
      "outputs": [
        {
          "name": "",
          "type": "string"
        }
      ],
      "payable": false,
      "stateMutability": "view",
      "type": "function"
    },
    {
      "constant": true,
      "inputs": [],
      "name": "initiatorSkill",
      "outputs": [
        {
          "name": "",
          "type": "string"
        }
      ],
      "payable": false,
      "stateMutability": "view",
      "type": "function"
    },
    {
      "constant": true,
      "inputs": [],
      "name": "respondent",
      "outputs": [
        {
          "name": "",
          "type": "address"
        }
      ],
      "payable": false,
      "stateMutability": "view",
      "type": "function"
    },
    {
      "inputs": [],
      "payable": false,
      "stateMutability": "nonpayable",
      "type": "constructor"
    },
    {
      "constant": true,
      "inputs": [],
      "name": "GetAgreement",
      "outputs": [
        {
          "name": "",
          "type": "address"
        },
        {
          "name": "",
          "type": "address"
        },
        {
          "name": "",
          "type": "string"
        },
        {
          "name": "",
          "type": "string"
        }
      ],
      "payable": false,
      "stateMutability": "view",
      "type": "function"
    },
    {
      "constant": false,
      "inputs": [],
      "name": "FinalizeAgreement",
      "outputs": [],
      "payable": false,
      "stateMutability": "nonpayable",
      "type": "function"
    }
  ],
  "bytecode": "0x608060405234801561001057600080fd5b50336000806101000a81548173ffffffffffffffffffffffffffffffffffffffff021916908373ffffffffffffffffffffffffffffffffffffffff1602179055506040805190810160405280600d81526020017f536b617465626f617264696e67000000000000000000000000000000000000008152506002908051906020019061009c9291906100a2565b50610147565b828054600181600116156101000203166002900490600052602060002090601f016020900481019282601f106100e357805160ff1916838001178555610111565b82800160010185558215610111579182015b828111156101105782518255916020019190600101906100f5565b5b50905061011e9190610122565b5090565b61014491905b80821115610140576000816000905550600101610128565b5090565b90565b610840806101566000396000f300608060405260043610610078576000357c0100000000000000000000000000000000000000000000000000000000900463ffffffff1680630a57401c1461007d5780633b7dfdd6146101df5780635c39fcc1146101f65780635d9cf43b1461024d5780639823fdfc146102dd578063987d3fe01461036d575b600080fd5b34801561008957600080fd5b506100926103c4565b604051808573ffffffffffffffffffffffffffffffffffffffff1673ffffffffffffffffffffffffffffffffffffffff1681526020018473ffffffffffffffffffffffffffffffffffffffff1673ffffffffffffffffffffffffffffffffffffffff1681526020018060200180602001838103835285818151815260200191508051906020019080838360005b8381101561013a57808201518184015260208101905061011f565b50505050905090810190601f1680156101675780820380516001836020036101000a031916815260200191505b50838103825284818151815260200191508051906020019080838360005b838110156101a0578082015181840152602081019050610185565b50505050905090810190601f1680156101cd5780820380516001836020036101000a031916815260200191505b50965050505050505060405180910390f35b3480156101eb57600080fd5b506101f4610559565b005b34801561020257600080fd5b5061020b6105e8565b604051808273ffffffffffffffffffffffffffffffffffffffff1673ffffffffffffffffffffffffffffffffffffffff16815260200191505060405180910390f35b34801561025957600080fd5b5061026261060d565b6040518080602001828103825283818151815260200191508051906020019080838360005b838110156102a2578082015181840152602081019050610287565b50505050905090810190601f1680156102cf5780820380516001836020036101000a031916815260200191505b509250505060405180910390f35b3480156102e957600080fd5b506102f26106ab565b6040518080602001828103825283818151815260200191508051906020019080838360005b83811015610332578082015181840152602081019050610317565b50505050905090810190601f16801561035f5780820380516001836020036101000a031916815260200191505b509250505060405180910390f35b34801561037957600080fd5b50610382610749565b604051808273ffffffffffffffffffffffffffffffffffffffff1673ffffffffffffffffffffffffffffffffffffffff16815260200191505060405180910390f35b6000806060806000809054906101000a900473ffffffffffffffffffffffffffffffffffffffff16600160009054906101000a900473ffffffffffffffffffffffffffffffffffffffff1660026003818054600181600116156101000203166002900480601f0160208091040260200160405190810160405280929190818152602001828054600181600116156101000203166002900480156104a85780601f1061047d576101008083540402835291602001916104a8565b820191906000526020600020905b81548152906001019060200180831161048b57829003601f168201915b50505050509150808054600181600116156101000203166002900480601f0160208091040260200160405190810160405280929190818152602001828054600181600116156101000203166002900480156105445780601f1061051957610100808354040283529160200191610544565b820191906000526020600020905b81548152906001019060200180831161052757829003601f168201915b50505050509050935093509350935090919293565b33600160006101000a81548173ffffffffffffffffffffffffffffffffffffffff021916908373ffffffffffffffffffffffffffffffffffffffff1602179055506040805190810160405280600a81526020017f4a61766153637269707400000000000000000000000000000000000000000000815250600390805190602001906105e592919061076f565b50565b6000809054906101000a900473ffffffffffffffffffffffffffffffffffffffff1681565b60038054600181600116156101000203166002900480601f0160208091040260200160405190810160405280929190818152602001828054600181600116156101000203166002900480156106a35780601f10610678576101008083540402835291602001916106a3565b820191906000526020600020905b81548152906001019060200180831161068657829003601f168201915b505050505081565b60028054600181600116156101000203166002900480601f0160208091040260200160405190810160405280929190818152602001828054600181600116156101000203166002900480156107415780601f1061071657610100808354040283529160200191610741565b820191906000526020600020905b81548152906001019060200180831161072457829003601f168201915b505050505081565b600160009054906101000a900473ffffffffffffffffffffffffffffffffffffffff1681565b828054600181600116156101000203166002900490600052602060002090601f016020900481019282601f106107b057805160ff19168380011785556107de565b828001600101855582156107de579182015b828111156107dd5782518255916020019190600101906107c2565b5b5090506107eb91906107ef565b5090565b61081191905b8082111561080d5760008160009055506001016107f5565b5090565b905600a165627a7a72305820a84d4aa4d4e285770b67df3020e8b701fd46b663a6dc9116803e04f05a18872f0029",
  "source": "// Requires Solidity version 0.4.17 or above in order to run\npragma solidity ^0.4.17;\n\ncontract SwapAgreement {\n\n// Declares variables that will be used to store addresses and skilss for each party involved in swap\n//The public keyword here creates getter methods i.e. initiator() { return initiator }\n    address public initiator;\n    address public respondent;\n    string public initiatorSkill;\n    string public respondentSkill;\n\n// Set the address and skill for the person who initiates the swap, this function is invoked as soon as the contract is compiled\n    constructor() public {\n        initiator = msg.sender;\n        initiatorSkill = \"Skateboarding\";\n    }\n\n// Get all current information regarding entire contract     \n    function GetAgreement() public view returns (address, address, string, string) {\n        return (initiator, respondent, initiatorSkill, respondentSkill); \n    }\n\n// Set contract respondent address and skill    \n    function FinalizeAgreement() public {\n        respondent = msg.sender;\n        respondentSkill = \"JavaScript\";\n    }\n    \n}\n",
  "sourcePath": "/Users/kateyun/Desktop/Fullstack/Senior-Phase/Capstone/Trinsic/contracts/SwapAgreement.sol",
  "compiler": {
    "name": "solc",
    "version": "0.4.24+commit.e67f0147.Emscripten.clang"
  },
  "schemaVersion": "2.0.0",
  "updatedAt": "2018-06-26T23:01:50.068Z"
}