{
  "contractName": "SwapAgreement",
  "abi": [
    {
      "anonymous": false,
      "inputs": [
        {
          "indexed": false,
          "name": "initiator",
          "type": "address"
        },
        {
          "indexed": false,
          "name": "respondent",
          "type": "address"
        },
        {
          "indexed": false,
          "name": "id",
          "type": "uint256"
        },
        {
          "indexed": false,
          "name": "initiatorSkill",
          "type": "bytes32"
        },
        {
          "indexed": false,
          "name": "respondentSkill",
          "type": "bytes32"
        }
      ],
      "name": "SwapLog",
      "type": "event"
    },
    {
      "constant": false,
      "inputs": [],
      "name": "initiatedSwap",
      "outputs": [
        {
          "name": "",
          "type": "uint256"
        }
      ],
      "payable": false,
      "stateMutability": "nonpayable",
      "type": "function"
    },
    {
      "constant": false,
      "inputs": [
        {
          "name": "id",
          "type": "uint256"
        }
      ],
      "name": "finalizeSwap",
      "outputs": [
        {
          "name": "",
          "type": "bytes32"
        }
      ],
      "payable": false,
      "stateMutability": "nonpayable",
      "type": "function"
    }
  ],
  "bytecode": "0x608060405234801561001057600080fd5b5061050a806100206000396000f30060806040526004361061004c576000357c0100000000000000000000000000000000000000000000000000000000900463ffffffff1680630892191714610051578063845a6f171461007c575b600080fd5b34801561005d57600080fd5b506100666100c5565b6040518082815260200191505060405180910390f35b34801561008857600080fd5b506100a7600480360381019080803590602001909291905050506102dc565b60405180826000191660001916815260200191505060405180910390f35b60008060007f536b617465626f617264696e67000000000000000000000000000000000000009150600160006080604051908101604052803373ffffffffffffffffffffffffffffffffffffffff168152602001600073ffffffffffffffffffffffffffffffffffffffff168152602001856000191681526020016000600102600019168152509080600181540180825580915050906001820390600052602060002090600402016000909192909190915060008201518160000160006101000a81548173ffffffffffffffffffffffffffffffffffffffff021916908373ffffffffffffffffffffffffffffffffffffffff16021790555060208201518160010160006101000a81548173ffffffffffffffffffffffffffffffffffffffff021916908373ffffffffffffffffffffffffffffffffffffffff160217905550604082015181600201906000191690556060820151816003019060001916905550500390507f3e8d3f4f201a00ba58566fae4058e55eac1aff0fef303474bfaffd5209ade36d33600083856000604051808673ffffffffffffffffffffffffffffffffffffffff1673ffffffffffffffffffffffffffffffffffffffff1681526020018573ffffffffffffffffffffffffffffffffffffffff1681526020018481526020018360001916600019168152602001826001026000191681526020019550505050505060405180910390a1809250505090565b60008060007f4a61766153637269707400000000000000000000000000000000000000000000915060008481548110151561031357fe5b906000526020600020906004020190508060000160009054906101000a900473ffffffffffffffffffffffffffffffffffffffff1673ffffffffffffffffffffffffffffffffffffffff163373ffffffffffffffffffffffffffffffffffffffff161415151561038257600080fd5b338160010160006101000a81548173ffffffffffffffffffffffffffffffffffffffff021916908373ffffffffffffffffffffffffffffffffffffffff1602179055507f3e8d3f4f201a00ba58566fae4058e55eac1aff0fef303474bfaffd5209ade36d8160000160009054906101000a900473ffffffffffffffffffffffffffffffffffffffff168260010160009054906101000a900473ffffffffffffffffffffffffffffffffffffffff1686846002015486604051808673ffffffffffffffffffffffffffffffffffffffff1673ffffffffffffffffffffffffffffffffffffffff1681526020018573ffffffffffffffffffffffffffffffffffffffff1673ffffffffffffffffffffffffffffffffffffffff168152602001848152602001836000191660001916815260200182600019166000191681526020019550505050505060405180910390a18060020154925050509190505600a165627a7a723058205d93dae2c092570ab3a6421b76b3b805c74fedccd3749bee499b877c4442ecb20029",
  "source": "// Requires Solidity version 0.4.17 or above in order to run\npragma solidity ^0.4.17;\n\ncontract SwapAgreement {\n\n  // Declares variables that will be used to store addresses for each party involved in swap\n    event SwapLog(\n        address initiator,\n        address respondent,\n        uint256 id,\n        bytes32 initiatorSkill,\n        bytes32 respondentSkill\n    );\n\n    Swap[] swaps;\n\n    struct Swap {\n        address initiator;\n        address respondent;\n        bytes32 initiatorSkill;\n        bytes32 respondentSkill;\n    }\n\n// Set the address for the person who initiates the swap\n    function initiatedSwap() public returns (uint256) {\n        bytes32 initiatorSkill = \"Skateboarding\";\n        uint256 id = swaps.push(Swap(msg.sender, 0x0000, initiatorSkill, 0x0000)) - 1; \n        emit SwapLog(msg.sender, 0x0000, id, initiatorSkill, 0x0000);\n        return id;\n    }\n\n// Set the address for the person who accepts the swap.\n    function finalizeSwap(uint256 id) public returns (bytes32){\n        bytes32 respondentSkill = \"JavaScript\";\n        Swap storage swap = swaps[id];\n        require(msg.sender != swap.initiator); // Prevent setting same address to initiator AND respondent\n        swap.respondent = msg.sender; \n        emit SwapLog(swap.initiator, swap.respondent, id, swap.initiatorSkill, respondentSkill);\n        return swap.initiatorSkill;\n    }\n}",
  "sourcePath": "/Users/lindsaysack/WDF - Foundations/Senior Phase/Trinsic/contracts/SwapAgreement.sol",
  "compiler": {
    "name": "solc",
    "version": "0.4.24+commit.e67f0147.Emscripten.clang"
  },
  "schemaVersion": "2.0.1",
  "updatedAt": "2018-06-23T15:49:40.087Z"
}