{
  "contractName": "SwapAgreementFactory",
  "abi": [
    {
      "constant": true,
      "inputs": [
        {
          "name": "",
          "type": "uint256"
        }
      ],
      "name": "deployedSwapAgreements",
      "outputs": [
        {
          "name": "",
          "type": "address"
        }
      ],
      "payable": false,
      "stateMutability": "view",
      "type": "function"
    },
    {
      "constant": false,
      "inputs": [],
      "name": "createSwapAgreement",
      "outputs": [],
      "payable": false,
      "stateMutability": "nonpayable",
      "type": "function"
    },
    {
      "constant": true,
      "inputs": [],
      "name": "getDeployedSwapAgreements",
      "outputs": [
        {
          "name": "",
          "type": "address[]"
        }
      ],
      "payable": false,
      "stateMutability": "view",
      "type": "function"
    }
  ],
  "bytecode": "0x608060405234801561001057600080fd5b50610d32806100206000396000f300608060405260043610610057576000357c0100000000000000000000000000000000000000000000000000000000900463ffffffff1680638f1471a01461005c57806399f23763146100c8578063b2d47327146100df575b600080fd5b34801561006857600080fd5b5061007161014c565b6040518080602001828103825283818151815260200191508051906020019060200280838360005b838110156100b4578082015181840152602081019050610099565b505050509050019250505060405180910390f35b3480156100d457600080fd5b506100dd6101da565b005b3480156100eb57600080fd5b5061010a600480360381019080803590602001909291905050506102a3565b604051808273ffffffffffffffffffffffffffffffffffffffff1673ffffffffffffffffffffffffffffffffffffffff16815260200191505060405180910390f35b606060008054806020026020016040519081016040528092919081815260200182805480156101d057602002820191906000526020600020905b8160009054906101000a900473ffffffffffffffffffffffffffffffffffffffff1673ffffffffffffffffffffffffffffffffffffffff1681526020019060010190808311610186575b5050505050905090565b6000336101e56102e1565b808273ffffffffffffffffffffffffffffffffffffffff1673ffffffffffffffffffffffffffffffffffffffff168152602001915050604051809103906000f080158015610237573d6000803e3d6000fd5b50905060008190806001815401808255809150509060018203906000526020600020016000909192909190916101000a81548173ffffffffffffffffffffffffffffffffffffffff021916908373ffffffffffffffffffffffffffffffffffffffff1602179055505050565b6000818154811015156102b257fe5b906000526020600020016000915054906101000a900473ffffffffffffffffffffffffffffffffffffffff1681565b604051610a15806102f2833901905600608060405234801561001057600080fd5b50604051602080610a1583398101806040528101908080519060200190929190505050806000806101000a81548173ffffffffffffffffffffffffffffffffffffffff021916908373ffffffffffffffffffffffffffffffffffffffff1602179055506040805190810160405280600d81526020017f536b617465626f617264696e6700000000000000000000000000000000000000815250600290805190602001906100be9291906100c5565b505061016a565b828054600181600116156101000203166002900490600052602060002090601f016020900481019282601f1061010657805160ff1916838001178555610134565b82800160010185558215610134579182015b82811115610133578251825591602001919060010190610118565b5b5090506101419190610145565b5090565b61016791905b8082111561016357600081600090555060010161014b565b5090565b90565b61089c806101796000396000f300608060405260043610610078576000357c0100000000000000000000000000000000000000000000000000000000900463ffffffff1680630a57401c1461007d5780633b7dfdd6146101df5780635c39fcc1146101f65780635d9cf43b1461024d5780639823fdfc146102dd578063987d3fe01461036d575b600080fd5b34801561008957600080fd5b506100926103c4565b604051808573ffffffffffffffffffffffffffffffffffffffff1673ffffffffffffffffffffffffffffffffffffffff1681526020018473ffffffffffffffffffffffffffffffffffffffff1673ffffffffffffffffffffffffffffffffffffffff1681526020018060200180602001838103835285818151815260200191508051906020019080838360005b8381101561013a57808201518184015260208101905061011f565b50505050905090810190601f1680156101675780820380516001836020036101000a031916815260200191505b50838103825284818151815260200191508051906020019080838360005b838110156101a0578082015181840152602081019050610185565b50505050905090810190601f1680156101cd5780820380516001836020036101000a031916815260200191505b50965050505050505060405180910390f35b3480156101eb57600080fd5b506101f4610559565b005b34801561020257600080fd5b5061020b610644565b604051808273ffffffffffffffffffffffffffffffffffffffff1673ffffffffffffffffffffffffffffffffffffffff16815260200191505060405180910390f35b34801561025957600080fd5b50610262610669565b6040518080602001828103825283818151815260200191508051906020019080838360005b838110156102a2578082015181840152602081019050610287565b50505050905090810190601f1680156102cf5780820380516001836020036101000a031916815260200191505b509250505060405180910390f35b3480156102e957600080fd5b506102f2610707565b6040518080602001828103825283818151815260200191508051906020019080838360005b83811015610332578082015181840152602081019050610317565b50505050905090810190601f16801561035f5780820380516001836020036101000a031916815260200191505b509250505060405180910390f35b34801561037957600080fd5b506103826107a5565b604051808273ffffffffffffffffffffffffffffffffffffffff1673ffffffffffffffffffffffffffffffffffffffff16815260200191505060405180910390f35b6000806060806000809054906101000a900473ffffffffffffffffffffffffffffffffffffffff16600160009054906101000a900473ffffffffffffffffffffffffffffffffffffffff1660026003818054600181600116156101000203166002900480601f0160208091040260200160405190810160405280929190818152602001828054600181600116156101000203166002900480156104a85780601f1061047d576101008083540402835291602001916104a8565b820191906000526020600020905b81548152906001019060200180831161048b57829003601f168201915b50505050509150808054600181600116156101000203166002900480601f0160208091040260200160405190810160405280929190818152602001828054600181600116156101000203166002900480156105445780601f1061051957610100808354040283529160200191610544565b820191906000526020600020905b81548152906001019060200180831161052757829003601f168201915b50505050509050935093509350935090919293565b6000809054906101000a900473ffffffffffffffffffffffffffffffffffffffff1673ffffffffffffffffffffffffffffffffffffffff163373ffffffffffffffffffffffffffffffffffffffff16141515156105b557600080fd5b33600160006101000a81548173ffffffffffffffffffffffffffffffffffffffff021916908373ffffffffffffffffffffffffffffffffffffffff1602179055506040805190810160405280600a81526020017f4a61766153637269707400000000000000000000000000000000000000000000815250600390805190602001906106419291906107cb565b50565b6000809054906101000a900473ffffffffffffffffffffffffffffffffffffffff1681565b60038054600181600116156101000203166002900480601f0160208091040260200160405190810160405280929190818152602001828054600181600116156101000203166002900480156106ff5780601f106106d4576101008083540402835291602001916106ff565b820191906000526020600020905b8154815290600101906020018083116106e257829003601f168201915b505050505081565b60028054600181600116156101000203166002900480601f01602080910402602001604051908101604052809291908181526020018280546001816001161561010002031660029004801561079d5780601f106107725761010080835404028352916020019161079d565b820191906000526020600020905b81548152906001019060200180831161078057829003601f168201915b505050505081565b600160009054906101000a900473ffffffffffffffffffffffffffffffffffffffff1681565b828054600181600116156101000203166002900490600052602060002090601f016020900481019282601f1061080c57805160ff191683800117855561083a565b8280016001018555821561083a579182015b8281111561083957825182559160200191906001019061081e565b5b509050610847919061084b565b5090565b61086d91905b80821115610869576000816000905550600101610851565b5090565b905600a165627a7a723058209e2ba900df448c6e39296852ccb02dc06a00f81168ad6248b5dbf7fe6c89ffc80029a165627a7a723058208fb08e8bd7e10f4d09c8c99f261df238a63d60ab84a82d4c736e32b3f0061b3a0029",
  "source": "// Requires Solidity version 0.4.17 or above in order to run\npragma solidity ^0.4.17;\n\ncontract SwapAgreementFactory {\n    address[] public deployedSwapAgreements;\n    \n    function createSwapAgreement() public {\n        address newSwapAgreement = new SwapAgreement(msg.sender);\n        deployedSwapAgreements.push(newSwapAgreement);\n    }\n    \n    function getDeployedSwapAgreements() public view returns (address[]){\n        return deployedSwapAgreements;\n    }   \n}\n\ncontract SwapAgreement {\n\n// Declares variables that will be used to store addresses and skilss for each party involved in swap\n//The public keyword here creates getter methods i.e. initiator() { return initiator }\n    address public initiator;\n    address public respondent;\n    string public initiatorSkill;\n    string public respondentSkill;\n\n// Set the address and skill for the person who initiates the swap, this function is invoked as soon as the contract is compiled\n    constructor(address creator) public {\n        initiator = creator;\n        initiatorSkill = \"Skateboarding\";\n    }\n\n// Get all current information regarding entire contract     \n    function GetAgreement() public view returns (address, address, string, string) {\n        return (initiator, respondent, initiatorSkill, respondentSkill); \n    }\n\n// Set contract respondent address and skill    \n    function FinalizeAgreement() public {\n        require(msg.sender != initiator);\n        respondent = msg.sender;\n        respondentSkill = \"JavaScript\";\n    }\n    \n}\n",
  "sourcePath": "/Users/kateyun/Desktop/Fullstack/Senior-Phase/Capstone/Trinsic/contracts/SwapAgreementFactory.sol",
  "compiler": {
    "name": "solc",
    "version": "0.4.24+commit.e67f0147.Emscripten.clang"
  },
  "schemaVersion": "2.0.0",
  "updatedAt": "2018-06-27T20:17:45.325Z"
}